{
	"Contracts/ItterableMapping.sol": {
		"SimpleIterableMap": {
			"abi": [
				{
					"inputs": [
						{
							"internalType": "uint256",
							"name": "value",
							"type": "uint256"
						}
					],
					"name": "addOrUpdate",
					"outputs": [],
					"stateMutability": "nonpayable",
					"type": "function"
				},
				{
					"inputs": [],
					"name": "getAll",
					"outputs": [
						{
							"internalType": "address[]",
							"name": "",
							"type": "address[]"
						},
						{
							"internalType": "uint256[]",
							"name": "",
							"type": "uint256[]"
						}
					],
					"stateMutability": "view",
					"type": "function"
				},
				{
					"inputs": [
						{
							"internalType": "uint256",
							"name": "index",
							"type": "uint256"
						}
					],
					"name": "getUserAndValue",
					"outputs": [
						{
							"internalType": "address",
							"name": "",
							"type": "address"
						},
						{
							"internalType": "uint256",
							"name": "",
							"type": "uint256"
						}
					],
					"stateMutability": "view",
					"type": "function"
				},
				{
					"inputs": [
						{
							"internalType": "uint256",
							"name": "index",
							"type": "uint256"
						}
					],
					"name": "getUserAtIndex",
					"outputs": [
						{
							"internalType": "address",
							"name": "",
							"type": "address"
						}
					],
					"stateMutability": "view",
					"type": "function"
				},
				{
					"inputs": [],
					"name": "getUserCount",
					"outputs": [
						{
							"internalType": "uint256",
							"name": "",
							"type": "uint256"
						}
					],
					"stateMutability": "view",
					"type": "function"
				},
				{
					"inputs": [
						{
							"internalType": "address",
							"name": "",
							"type": "address"
						}
					],
					"name": "hasAdded",
					"outputs": [
						{
							"internalType": "bool",
							"name": "",
							"type": "bool"
						}
					],
					"stateMutability": "view",
					"type": "function"
				},
				{
					"inputs": [
						{
							"internalType": "address",
							"name": "",
							"type": "address"
						}
					],
					"name": "userValue",
					"outputs": [
						{
							"internalType": "uint256",
							"name": "",
							"type": "uint256"
						}
					],
					"stateMutability": "view",
					"type": "function"
				},
				{
					"inputs": [
						{
							"internalType": "uint256",
							"name": "",
							"type": "uint256"
						}
					],
					"name": "users",
					"outputs": [
						{
							"internalType": "address",
							"name": "",
							"type": "address"
						}
					],
					"stateMutability": "view",
					"type": "function"
				}
			],
			"devdoc": {
				"kind": "dev",
				"methods": {},
				"version": 1
			},
			"evm": {
				"assembly": "    /* \"Contracts/ItterableMapping.sol\":61:2704  contract SimpleIterableMap {... */\n  mstore(0x40, 0x80)\n  callvalue\n  dup1\n  iszero\n  tag_1\n  jumpi\n  revert(0x00, 0x00)\ntag_1:\n  pop\n  dataSize(sub_0)\n  dup1\n  dataOffset(sub_0)\n  0x00\n  codecopy\n  0x00\n  return\nstop\n\nsub_0: assembly {\n        /* \"Contracts/ItterableMapping.sol\":61:2704  contract SimpleIterableMap {... */\n      mstore(0x40, 0x80)\n      callvalue\n      dup1\n      iszero\n      tag_1\n      jumpi\n      revert(0x00, 0x00)\n    tag_1:\n      pop\n      jumpi(tag_2, lt(calldatasize, 0x04))\n      shr(0xe0, calldataload(0x00))\n      dup1\n      0xb5cb15f7\n      gt\n      tag_11\n      jumpi\n      dup1\n      0xb5cb15f7\n      eq\n      tag_7\n      jumpi\n      dup1\n      0xe3874b29\n      eq\n      tag_8\n      jumpi\n      dup1\n      0xf72830d4\n      eq\n      tag_9\n      jumpi\n      dup1\n      0xffcc7bbf\n      eq\n      tag_10\n      jumpi\n      jump(tag_2)\n    tag_11:\n      dup1\n      0x365b98b2\n      eq\n      tag_3\n      jumpi\n      dup1\n      0x3bdd0734\n      eq\n      tag_4\n      jumpi\n      dup1\n      0x53ed5143\n      eq\n      tag_5\n      jumpi\n      dup1\n      0x90a82112\n      eq\n      tag_6\n      jumpi\n    tag_2:\n      revert(0x00, 0x00)\n        /* \"Contracts/ItterableMapping.sol\":235:257  address[] public users */\n    tag_3:\n      tag_12\n      0x04\n      dup1\n      calldatasize\n      sub\n      dup2\n      add\n      swap1\n      tag_13\n      swap2\n      swap1\n      tag_14\n      jump\t// in\n    tag_13:\n      tag_15\n      jump\t// in\n    tag_12:\n      mload(0x40)\n      tag_16\n      swap2\n      swap1\n      tag_17\n      jump\t// in\n    tag_16:\n      mload(0x40)\n      dup1\n      swap2\n      sub\n      swap1\n      return\n        /* \"Contracts/ItterableMapping.sol\":459:802  function addOrUpdate(uint256 value) public {... */\n    tag_4:\n      tag_18\n      0x04\n      dup1\n      calldatasize\n      sub\n      dup2\n      add\n      swap1\n      tag_19\n      swap2\n      swap1\n      tag_14\n      jump\t// in\n    tag_19:\n      tag_20\n      jump\t// in\n    tag_18:\n      stop\n        /* \"Contracts/ItterableMapping.sol\":1600:2061  function getAll() public view returns (address[] memory, uint256[] memory) {... */\n    tag_5:\n      tag_21\n      tag_22\n      jump\t// in\n    tag_21:\n      mload(0x40)\n      tag_23\n      swap3\n      swap2\n      swap1\n      tag_24\n      jump\t// in\n    tag_23:\n      mload(0x40)\n      dup1\n      swap2\n      sub\n      swap1\n      return\n        /* \"Contracts/ItterableMapping.sol\":129:173  mapping(address => uint256) public userValue */\n    tag_6:\n      tag_25\n      0x04\n      dup1\n      calldatasize\n      sub\n      dup2\n      add\n      swap1\n      tag_26\n      swap2\n      swap1\n      tag_27\n      jump\t// in\n    tag_26:\n      tag_28\n      jump\t// in\n    tag_25:\n      mload(0x40)\n      tag_29\n      swap2\n      swap1\n      tag_30\n      jump\t// in\n    tag_29:\n      mload(0x40)\n      dup1\n      swap2\n      sub\n      swap1\n      return\n        /* \"Contracts/ItterableMapping.sol\":875:967  function getUserCount() public view returns (uint256) {... */\n    tag_7:\n      tag_31\n      tag_32\n      jump\t// in\n    tag_31:\n      mload(0x40)\n      tag_33\n      swap2\n      swap1\n      tag_30\n      jump\t// in\n    tag_33:\n      mload(0x40)\n      dup1\n      swap2\n      sub\n      swap1\n      return\n        /* \"Contracts/ItterableMapping.sol\":362:402  mapping(address => bool) public hasAdded */\n    tag_8:\n      tag_34\n      0x04\n      dup1\n      calldatasize\n      sub\n      dup2\n      add\n      swap1\n      tag_35\n      swap2\n      swap1\n      tag_27\n      jump\t// in\n    tag_35:\n      tag_36\n      jump\t// in\n    tag_34:\n      mload(0x40)\n      tag_37\n      swap2\n      swap1\n      tag_38\n      jump\t// in\n    tag_37:\n      mload(0x40)\n      dup1\n      swap2\n      sub\n      swap1\n      return\n        /* \"Contracts/ItterableMapping.sol\":1278:1521  function getUserAndValue(uint index) public view returns (address, uint256) {... */\n    tag_9:\n      tag_39\n      0x04\n      dup1\n      calldatasize\n      sub\n      dup2\n      add\n      swap1\n      tag_40\n      swap2\n      swap1\n      tag_14\n      jump\t// in\n    tag_40:\n      tag_41\n      jump\t// in\n    tag_39:\n      mload(0x40)\n      tag_42\n      swap3\n      swap2\n      swap1\n      tag_43\n      jump\t// in\n    tag_42:\n      mload(0x40)\n      dup1\n      swap2\n      sub\n      swap1\n      return\n        /* \"Contracts/ItterableMapping.sol\":1037:1204  function getUserAtIndex(uint index) public view returns (address) {... */\n    tag_10:\n      tag_44\n      0x04\n      dup1\n      calldatasize\n      sub\n      dup2\n      add\n      swap1\n      tag_45\n      swap2\n      swap1\n      tag_14\n      jump\t// in\n    tag_45:\n      tag_46\n      jump\t// in\n    tag_44:\n      mload(0x40)\n      tag_47\n      swap2\n      swap1\n      tag_17\n      jump\t// in\n    tag_47:\n      mload(0x40)\n      dup1\n      swap2\n      sub\n      swap1\n      return\n        /* \"Contracts/ItterableMapping.sol\":235:257  address[] public users */\n    tag_15:\n      0x01\n      dup2\n      dup2\n      sload\n      dup2\n      lt\n      tag_48\n      jumpi\n      0x00\n      dup1\n      revert\n    tag_48:\n      swap1\n      0x00\n      mstore\n      keccak256(0x00, 0x20)\n      add\n      0x00\n      swap2\n      pop\n      sload\n      swap1\n      0x0100\n      exp\n      swap1\n      div\n      0xffffffffffffffffffffffffffffffffffffffff\n      and\n      dup2\n      jump\t// out\n        /* \"Contracts/ItterableMapping.sol\":459:802  function addOrUpdate(uint256 value) public {... */\n    tag_20:\n        /* \"Contracts/ItterableMapping.sol\":580:585  value */\n      dup1\n        /* \"Contracts/ItterableMapping.sol\":556:565  userValue */\n      0x00\n        /* \"Contracts/ItterableMapping.sol\":556:577  userValue[msg.sender] */\n      0x00\n        /* \"Contracts/ItterableMapping.sol\":566:576  msg.sender */\n      caller\n        /* \"Contracts/ItterableMapping.sol\":556:577  userValue[msg.sender] */\n      0xffffffffffffffffffffffffffffffffffffffff\n      and\n      0xffffffffffffffffffffffffffffffffffffffff\n      and\n      dup2\n      mstore\n      0x20\n      add\n      swap1\n      dup2\n      mstore\n      0x20\n      add\n      0x00\n      keccak256\n        /* \"Contracts/ItterableMapping.sol\":556:585  userValue[msg.sender] = value */\n      dup2\n      swap1\n      sstore\n      pop\n        /* \"Contracts/ItterableMapping.sol\":682:690  hasAdded */\n      0x02\n        /* \"Contracts/ItterableMapping.sol\":682:702  hasAdded[msg.sender] */\n      0x00\n        /* \"Contracts/ItterableMapping.sol\":691:701  msg.sender */\n      caller\n        /* \"Contracts/ItterableMapping.sol\":682:702  hasAdded[msg.sender] */\n      0xffffffffffffffffffffffffffffffffffffffff\n      and\n      0xffffffffffffffffffffffffffffffffffffffff\n      and\n      dup2\n      mstore\n      0x20\n      add\n      swap1\n      dup2\n      mstore\n      0x20\n      add\n      0x00\n      keccak256\n      0x00\n      swap1\n      sload\n      swap1\n      0x0100\n      exp\n      swap1\n      div\n      0xff\n      and\n        /* \"Contracts/ItterableMapping.sol\":677:795  if (!hasAdded[msg.sender]) {... */\n      tag_51\n      jumpi\n        /* \"Contracts/ItterableMapping.sol\":719:724  users */\n      0x01\n        /* \"Contracts/ItterableMapping.sol\":730:740  msg.sender */\n      caller\n        /* \"Contracts/ItterableMapping.sol\":719:741  users.push(msg.sender) */\n      swap1\n      dup1\n      0x01\n      dup2\n      sload\n      add\n      dup1\n      dup3\n      sstore\n      dup1\n      swap2\n      pop\n      pop\n      0x01\n      swap1\n      sub\n      swap1\n      0x00\n      mstore\n      keccak256(0x00, 0x20)\n      add\n      0x00\n      swap1\n      swap2\n      swap1\n      swap2\n      swap1\n      swap2\n      0x0100\n      exp\n      dup2\n      sload\n      dup2\n      0xffffffffffffffffffffffffffffffffffffffff\n      mul\n      not\n      and\n      swap1\n      dup4\n      0xffffffffffffffffffffffffffffffffffffffff\n      and\n      mul\n      or\n      swap1\n      sstore\n      pop\n        /* \"Contracts/ItterableMapping.sol\":779:783  true */\n      0x01\n        /* \"Contracts/ItterableMapping.sol\":756:764  hasAdded */\n      0x02\n        /* \"Contracts/ItterableMapping.sol\":756:776  hasAdded[msg.sender] */\n      0x00\n        /* \"Contracts/ItterableMapping.sol\":765:775  msg.sender */\n      caller\n        /* \"Contracts/ItterableMapping.sol\":756:776  hasAdded[msg.sender] */\n      0xffffffffffffffffffffffffffffffffffffffff\n      and\n      0xffffffffffffffffffffffffffffffffffffffff\n      and\n      dup2\n      mstore\n      0x20\n      add\n      swap1\n      dup2\n      mstore\n      0x20\n      add\n      0x00\n      keccak256\n      0x00\n        /* \"Contracts/ItterableMapping.sol\":756:783  hasAdded[msg.sender] = true */\n      0x0100\n      exp\n      dup2\n      sload\n      dup2\n      0xff\n      mul\n      not\n      and\n      swap1\n      dup4\n      iszero\n      iszero\n      mul\n      or\n      swap1\n      sstore\n      pop\n        /* \"Contracts/ItterableMapping.sol\":677:795  if (!hasAdded[msg.sender]) {... */\n    tag_51:\n        /* \"Contracts/ItterableMapping.sol\":459:802  function addOrUpdate(uint256 value) public {... */\n      pop\n      jump\t// out\n        /* \"Contracts/ItterableMapping.sol\":1600:2061  function getAll() public view returns (address[] memory, uint256[] memory) {... */\n    tag_22:\n        /* \"Contracts/ItterableMapping.sol\":1639:1655  address[] memory */\n      0x60\n        /* \"Contracts/ItterableMapping.sol\":1657:1673  uint256[] memory */\n      dup1\n        /* \"Contracts/ItterableMapping.sol\":1686:1697  uint256 len */\n      0x00\n        /* \"Contracts/ItterableMapping.sol\":1700:1705  users */\n      0x01\n        /* \"Contracts/ItterableMapping.sol\":1700:1712  users.length */\n      dup1\n      sload\n      swap1\n      pop\n        /* \"Contracts/ItterableMapping.sol\":1686:1712  uint256 len = users.length */\n      swap1\n      pop\n        /* \"Contracts/ItterableMapping.sol\":1723:1749  address[] memory addresses */\n      0x00\n        /* \"Contracts/ItterableMapping.sol\":1766:1769  len */\n      dup2\n        /* \"Contracts/ItterableMapping.sol\":1752:1770  new address[](len) */\n      0xffffffffffffffff\n      dup2\n      gt\n      iszero\n      tag_54\n      jumpi\n      tag_55\n      tag_56\n      jump\t// in\n    tag_55:\n    tag_54:\n      mload(0x40)\n      swap1\n      dup1\n      dup3\n      mstore\n      dup1\n      0x20\n      mul\n      0x20\n      add\n      dup3\n      add\n      0x40\n      mstore\n      dup1\n      iszero\n      tag_57\n      jumpi\n      dup2\n      0x20\n      add\n      0x20\n      dup3\n      mul\n      dup1\n      calldatasize\n      dup4\n      calldatacopy\n      dup1\n      dup3\n      add\n      swap2\n      pop\n      pop\n      swap1\n      pop\n    tag_57:\n      pop\n        /* \"Contracts/ItterableMapping.sol\":1723:1770  address[] memory addresses = new address[](len) */\n      swap1\n      pop\n        /* \"Contracts/ItterableMapping.sol\":1781:1804  uint256[] memory values */\n      0x00\n        /* \"Contracts/ItterableMapping.sol\":1821:1824  len */\n      dup3\n        /* \"Contracts/ItterableMapping.sol\":1807:1825  new uint256[](len) */\n      0xffffffffffffffff\n      dup2\n      gt\n      iszero\n      tag_58\n      jumpi\n      tag_59\n      tag_56\n      jump\t// in\n    tag_59:\n    tag_58:\n      mload(0x40)\n      swap1\n      dup1\n      dup3\n      mstore\n      dup1\n      0x20\n      mul\n      0x20\n      add\n      dup3\n      add\n      0x40\n      mstore\n      dup1\n      iszero\n      tag_60\n      jumpi\n      dup2\n      0x20\n      add\n      0x20\n      dup3\n      mul\n      dup1\n      calldatasize\n      dup4\n      calldatacopy\n      dup1\n      dup3\n      add\n      swap2\n      pop\n      pop\n      swap1\n      pop\n    tag_60:\n      pop\n        /* \"Contracts/ItterableMapping.sol\":1781:1825  uint256[] memory values = new uint256[](len) */\n      swap1\n      pop\n        /* \"Contracts/ItterableMapping.sol\":1843:1852  uint256 i */\n      0x00\n        /* \"Contracts/ItterableMapping.sol\":1855:1856  0 */\n      0x00\n        /* \"Contracts/ItterableMapping.sol\":1843:1856  uint256 i = 0 */\n      swap1\n      pop\n        /* \"Contracts/ItterableMapping.sol\":1838:2015  for (uint256 i = 0; i < len; i++) {... */\n    tag_61:\n        /* \"Contracts/ItterableMapping.sol\":1862:1865  len */\n      dup4\n        /* \"Contracts/ItterableMapping.sol\":1858:1859  i */\n      dup2\n        /* \"Contracts/ItterableMapping.sol\":1858:1865  i < len */\n      lt\n        /* \"Contracts/ItterableMapping.sol\":1838:2015  for (uint256 i = 0; i < len; i++) {... */\n      iszero\n      tag_62\n      jumpi\n        /* \"Contracts/ItterableMapping.sol\":1887:1899  address user */\n      0x00\n        /* \"Contracts/ItterableMapping.sol\":1902:1907  users */\n      0x01\n        /* \"Contracts/ItterableMapping.sol\":1908:1909  i */\n      dup3\n        /* \"Contracts/ItterableMapping.sol\":1902:1910  users[i] */\n      dup2\n      sload\n      dup2\n      lt\n      tag_64\n      jumpi\n      tag_65\n      tag_66\n      jump\t// in\n    tag_65:\n    tag_64:\n      swap1\n      0x00\n      mstore\n      keccak256(0x00, 0x20)\n      add\n      0x00\n      swap1\n      sload\n      swap1\n      0x0100\n      exp\n      swap1\n      div\n      0xffffffffffffffffffffffffffffffffffffffff\n      and\n        /* \"Contracts/ItterableMapping.sol\":1887:1910  address user = users[i] */\n      swap1\n      pop\n        /* \"Contracts/ItterableMapping.sol\":1957:1961  user */\n      dup1\n        /* \"Contracts/ItterableMapping.sol\":1942:1951  addresses */\n      dup5\n        /* \"Contracts/ItterableMapping.sol\":1952:1953  i */\n      dup4\n        /* \"Contracts/ItterableMapping.sol\":1942:1954  addresses[i] */\n      dup2\n      mload\n      dup2\n      lt\n      tag_68\n      jumpi\n      tag_69\n      tag_66\n      jump\t// in\n    tag_69:\n    tag_68:\n      0x20\n      mul\n      0x20\n      add\n      add\n        /* \"Contracts/ItterableMapping.sol\":1942:1961  addresses[i] = user */\n      swap1\n      0xffffffffffffffffffffffffffffffffffffffff\n      and\n      swap1\n      dup2\n      0xffffffffffffffffffffffffffffffffffffffff\n      and\n      dup2\n      mstore\n      pop\n      pop\n        /* \"Contracts/ItterableMapping.sol\":1988:1997  userValue */\n      0x00\n        /* \"Contracts/ItterableMapping.sol\":1988:2003  userValue[user] */\n      0x00\n        /* \"Contracts/ItterableMapping.sol\":1998:2002  user */\n      dup3\n        /* \"Contracts/ItterableMapping.sol\":1988:2003  userValue[user] */\n      0xffffffffffffffffffffffffffffffffffffffff\n      and\n      0xffffffffffffffffffffffffffffffffffffffff\n      and\n      dup2\n      mstore\n      0x20\n      add\n      swap1\n      dup2\n      mstore\n      0x20\n      add\n      0x00\n      keccak256\n      sload\n        /* \"Contracts/ItterableMapping.sol\":1976:1982  values */\n      dup4\n        /* \"Contracts/ItterableMapping.sol\":1983:1984  i */\n      dup4\n        /* \"Contracts/ItterableMapping.sol\":1976:1985  values[i] */\n      dup2\n      mload\n      dup2\n      lt\n      tag_70\n      jumpi\n      tag_71\n      tag_66\n      jump\t// in\n    tag_71:\n    tag_70:\n      0x20\n      mul\n      0x20\n      add\n      add\n        /* \"Contracts/ItterableMapping.sol\":1976:2003  values[i] = userValue[user] */\n      dup2\n      dup2\n      mstore\n      pop\n      pop\n        /* \"Contracts/ItterableMapping.sol\":1872:2015  {... */\n      pop\n        /* \"Contracts/ItterableMapping.sol\":1867:1870  i++ */\n      dup1\n      dup1\n      0x01\n      add\n      swap2\n      pop\n      pop\n        /* \"Contracts/ItterableMapping.sol\":1838:2015  for (uint256 i = 0; i < len; i++) {... */\n      jump(tag_61)\n    tag_62:\n      pop\n        /* \"Contracts/ItterableMapping.sol\":2035:2044  addresses */\n      dup2\n        /* \"Contracts/ItterableMapping.sol\":2046:2052  values */\n      dup2\n        /* \"Contracts/ItterableMapping.sol\":2027:2053  return (addresses, values) */\n      swap5\n      pop\n      swap5\n      pop\n      pop\n      pop\n      pop\n        /* \"Contracts/ItterableMapping.sol\":1600:2061  function getAll() public view returns (address[] memory, uint256[] memory) {... */\n      swap1\n      swap2\n      jump\t// out\n        /* \"Contracts/ItterableMapping.sol\":129:173  mapping(address => uint256) public userValue */\n    tag_28:\n      mstore(0x20, 0x00)\n      dup1\n      0x00\n      mstore\n      keccak256(0x00, 0x40)\n      0x00\n      swap2\n      pop\n      swap1\n      pop\n      sload\n      dup2\n      jump\t// out\n        /* \"Contracts/ItterableMapping.sol\":875:967  function getUserCount() public view returns (uint256) {... */\n    tag_32:\n        /* \"Contracts/ItterableMapping.sol\":920:927  uint256 */\n      0x00\n        /* \"Contracts/ItterableMapping.sol\":947:952  users */\n      0x01\n        /* \"Contracts/ItterableMapping.sol\":947:959  users.length */\n      dup1\n      sload\n      swap1\n      pop\n        /* \"Contracts/ItterableMapping.sol\":940:959  return users.length */\n      swap1\n      pop\n        /* \"Contracts/ItterableMapping.sol\":875:967  function getUserCount() public view returns (uint256) {... */\n      swap1\n      jump\t// out\n        /* \"Contracts/ItterableMapping.sol\":362:402  mapping(address => bool) public hasAdded */\n    tag_36:\n      mstore(0x20, 0x02)\n      dup1\n      0x00\n      mstore\n      keccak256(0x00, 0x40)\n      0x00\n      swap2\n      pop\n      sload\n      swap1\n      0x0100\n      exp\n      swap1\n      div\n      0xff\n      and\n      dup2\n      jump\t// out\n        /* \"Contracts/ItterableMapping.sol\":1278:1521  function getUserAndValue(uint index) public view returns (address, uint256) {... */\n    tag_41:\n        /* \"Contracts/ItterableMapping.sol\":1336:1343  address */\n      0x00\n        /* \"Contracts/ItterableMapping.sol\":1345:1352  uint256 */\n      0x00\n        /* \"Contracts/ItterableMapping.sol\":1381:1386  users */\n      0x01\n        /* \"Contracts/ItterableMapping.sol\":1381:1393  users.length */\n      dup1\n      sload\n      swap1\n      pop\n        /* \"Contracts/ItterableMapping.sol\":1373:1378  index */\n      dup4\n        /* \"Contracts/ItterableMapping.sol\":1373:1393  index < users.length */\n      lt\n        /* \"Contracts/ItterableMapping.sol\":1365:1417  require(index < users.length, \"Index out of bounds\") */\n      tag_74\n      jumpi\n      mload(0x40)\n      0x08c379a000000000000000000000000000000000000000000000000000000000\n      dup2\n      mstore\n      0x04\n      add\n      tag_75\n      swap1\n      tag_76\n      jump\t// in\n    tag_75:\n      mload(0x40)\n      dup1\n      swap2\n      sub\n      swap1\n      revert\n    tag_74:\n        /* \"Contracts/ItterableMapping.sol\":1428:1440  address user */\n      0x00\n        /* \"Contracts/ItterableMapping.sol\":1443:1448  users */\n      0x01\n        /* \"Contracts/ItterableMapping.sol\":1449:1454  index */\n      dup5\n        /* \"Contracts/ItterableMapping.sol\":1443:1455  users[index] */\n      dup2\n      sload\n      dup2\n      lt\n      tag_77\n      jumpi\n      tag_78\n      tag_66\n      jump\t// in\n    tag_78:\n    tag_77:\n      swap1\n      0x00\n      mstore\n      keccak256(0x00, 0x20)\n      add\n      0x00\n      swap1\n      sload\n      swap1\n      0x0100\n      exp\n      swap1\n      div\n      0xffffffffffffffffffffffffffffffffffffffff\n      and\n        /* \"Contracts/ItterableMapping.sol\":1428:1455  address user = users[index] */\n      swap1\n      pop\n        /* \"Contracts/ItterableMapping.sol\":1491:1495  user */\n      dup1\n        /* \"Contracts/ItterableMapping.sol\":1497:1506  userValue */\n      0x00\n        /* \"Contracts/ItterableMapping.sol\":1497:1512  userValue[user] */\n      0x00\n        /* \"Contracts/ItterableMapping.sol\":1507:1511  user */\n      dup4\n        /* \"Contracts/ItterableMapping.sol\":1497:1512  userValue[user] */\n      0xffffffffffffffffffffffffffffffffffffffff\n      and\n      0xffffffffffffffffffffffffffffffffffffffff\n      and\n      dup2\n      mstore\n      0x20\n      add\n      swap1\n      dup2\n      mstore\n      0x20\n      add\n      0x00\n      keccak256\n      sload\n        /* \"Contracts/ItterableMapping.sol\":1483:1513  return (user, userValue[user]) */\n      swap3\n      pop\n      swap3\n      pop\n      pop\n        /* \"Contracts/ItterableMapping.sol\":1278:1521  function getUserAndValue(uint index) public view returns (address, uint256) {... */\n      swap2\n      pop\n      swap2\n      jump\t// out\n        /* \"Contracts/ItterableMapping.sol\":1037:1204  function getUserAtIndex(uint index) public view returns (address) {... */\n    tag_46:\n        /* \"Contracts/ItterableMapping.sol\":1094:1101  address */\n      0x00\n        /* \"Contracts/ItterableMapping.sol\":1130:1135  users */\n      0x01\n        /* \"Contracts/ItterableMapping.sol\":1130:1142  users.length */\n      dup1\n      sload\n      swap1\n      pop\n        /* \"Contracts/ItterableMapping.sol\":1122:1127  index */\n      dup3\n        /* \"Contracts/ItterableMapping.sol\":1122:1142  index < users.length */\n      lt\n        /* \"Contracts/ItterableMapping.sol\":1114:1166  require(index < users.length, \"Index out of bounds\") */\n      tag_81\n      jumpi\n      mload(0x40)\n      0x08c379a000000000000000000000000000000000000000000000000000000000\n      dup2\n      mstore\n      0x04\n      add\n      tag_82\n      swap1\n      tag_76\n      jump\t// in\n    tag_82:\n      mload(0x40)\n      dup1\n      swap2\n      sub\n      swap1\n      revert\n    tag_81:\n        /* \"Contracts/ItterableMapping.sol\":1184:1189  users */\n      0x01\n        /* \"Contracts/ItterableMapping.sol\":1190:1195  index */\n      dup3\n        /* \"Contracts/ItterableMapping.sol\":1184:1196  users[index] */\n      dup2\n      sload\n      dup2\n      lt\n      tag_83\n      jumpi\n      tag_84\n      tag_66\n      jump\t// in\n    tag_84:\n    tag_83:\n      swap1\n      0x00\n      mstore\n      keccak256(0x00, 0x20)\n      add\n      0x00\n      swap1\n      sload\n      swap1\n      0x0100\n      exp\n      swap1\n      div\n      0xffffffffffffffffffffffffffffffffffffffff\n      and\n        /* \"Contracts/ItterableMapping.sol\":1177:1196  return users[index] */\n      swap1\n      pop\n        /* \"Contracts/ItterableMapping.sol\":1037:1204  function getUserAtIndex(uint index) public view returns (address) {... */\n      swap2\n      swap1\n      pop\n      jump\t// out\n        /* \"#utility.yul\":88:205   */\n    tag_87:\n        /* \"#utility.yul\":197:198   */\n      0x00\n        /* \"#utility.yul\":194:195   */\n      0x00\n        /* \"#utility.yul\":187:199   */\n      revert\n        /* \"#utility.yul\":334:411   */\n    tag_89:\n        /* \"#utility.yul\":371:378   */\n      0x00\n        /* \"#utility.yul\":400:405   */\n      dup2\n        /* \"#utility.yul\":389:405   */\n      swap1\n      pop\n        /* \"#utility.yul\":334:411   */\n      swap2\n      swap1\n      pop\n      jump\t// out\n        /* \"#utility.yul\":417:539   */\n    tag_90:\n        /* \"#utility.yul\":490:514   */\n      tag_123\n        /* \"#utility.yul\":508:513   */\n      dup2\n        /* \"#utility.yul\":490:514   */\n      tag_89\n      jump\t// in\n    tag_123:\n        /* \"#utility.yul\":483:488   */\n      dup2\n        /* \"#utility.yul\":480:515   */\n      eq\n        /* \"#utility.yul\":470:533   */\n      tag_124\n      jumpi\n        /* \"#utility.yul\":529:530   */\n      0x00\n        /* \"#utility.yul\":526:527   */\n      0x00\n        /* \"#utility.yul\":519:531   */\n      revert\n        /* \"#utility.yul\":470:533   */\n    tag_124:\n        /* \"#utility.yul\":417:539   */\n      pop\n      jump\t// out\n        /* \"#utility.yul\":545:684   */\n    tag_91:\n        /* \"#utility.yul\":591:596   */\n      0x00\n        /* \"#utility.yul\":629:635   */\n      dup2\n        /* \"#utility.yul\":616:636   */\n      calldataload\n        /* \"#utility.yul\":607:636   */\n      swap1\n      pop\n        /* \"#utility.yul\":645:678   */\n      tag_126\n        /* \"#utility.yul\":672:677   */\n      dup2\n        /* \"#utility.yul\":645:678   */\n      tag_90\n      jump\t// in\n    tag_126:\n        /* \"#utility.yul\":545:684   */\n      swap3\n      swap2\n      pop\n      pop\n      jump\t// out\n        /* \"#utility.yul\":690:1019   */\n    tag_14:\n        /* \"#utility.yul\":749:755   */\n      0x00\n        /* \"#utility.yul\":798:800   */\n      0x20\n        /* \"#utility.yul\":786:795   */\n      dup3\n        /* \"#utility.yul\":777:784   */\n      dup5\n        /* \"#utility.yul\":773:796   */\n      sub\n        /* \"#utility.yul\":769:801   */\n      slt\n        /* \"#utility.yul\":766:885   */\n      iszero\n      tag_128\n      jumpi\n        /* \"#utility.yul\":804:883   */\n      tag_129\n      tag_87\n      jump\t// in\n    tag_129:\n        /* \"#utility.yul\":766:885   */\n    tag_128:\n        /* \"#utility.yul\":924:925   */\n      0x00\n        /* \"#utility.yul\":949:1002   */\n      tag_130\n        /* \"#utility.yul\":994:1001   */\n      dup5\n        /* \"#utility.yul\":985:991   */\n      dup3\n        /* \"#utility.yul\":974:983   */\n      dup6\n        /* \"#utility.yul\":970:992   */\n      add\n        /* \"#utility.yul\":949:1002   */\n      tag_91\n      jump\t// in\n    tag_130:\n        /* \"#utility.yul\":939:1002   */\n      swap2\n      pop\n        /* \"#utility.yul\":895:1012   */\n      pop\n        /* \"#utility.yul\":690:1019   */\n      swap3\n      swap2\n      pop\n      pop\n      jump\t// out\n        /* \"#utility.yul\":1025:1151   */\n    tag_92:\n        /* \"#utility.yul\":1062:1069   */\n      0x00\n        /* \"#utility.yul\":1102:1144   */\n      0xffffffffffffffffffffffffffffffffffffffff\n        /* \"#utility.yul\":1095:1100   */\n      dup3\n        /* \"#utility.yul\":1091:1145   */\n      and\n        /* \"#utility.yul\":1080:1145   */\n      swap1\n      pop\n        /* \"#utility.yul\":1025:1151   */\n      swap2\n      swap1\n      pop\n      jump\t// out\n        /* \"#utility.yul\":1157:1253   */\n    tag_93:\n        /* \"#utility.yul\":1194:1201   */\n      0x00\n        /* \"#utility.yul\":1223:1247   */\n      tag_133\n        /* \"#utility.yul\":1241:1246   */\n      dup3\n        /* \"#utility.yul\":1223:1247   */\n      tag_92\n      jump\t// in\n    tag_133:\n        /* \"#utility.yul\":1212:1247   */\n      swap1\n      pop\n        /* \"#utility.yul\":1157:1253   */\n      swap2\n      swap1\n      pop\n      jump\t// out\n        /* \"#utility.yul\":1259:1377   */\n    tag_94:\n        /* \"#utility.yul\":1346:1370   */\n      tag_135\n        /* \"#utility.yul\":1364:1369   */\n      dup2\n        /* \"#utility.yul\":1346:1370   */\n      tag_93\n      jump\t// in\n    tag_135:\n        /* \"#utility.yul\":1341:1344   */\n      dup3\n        /* \"#utility.yul\":1334:1371   */\n      mstore\n        /* \"#utility.yul\":1259:1377   */\n      pop\n      pop\n      jump\t// out\n        /* \"#utility.yul\":1383:1605   */\n    tag_17:\n        /* \"#utility.yul\":1476:1480   */\n      0x00\n        /* \"#utility.yul\":1514:1516   */\n      0x20\n        /* \"#utility.yul\":1503:1512   */\n      dup3\n        /* \"#utility.yul\":1499:1517   */\n      add\n        /* \"#utility.yul\":1491:1517   */\n      swap1\n      pop\n        /* \"#utility.yul\":1527:1598   */\n      tag_137\n        /* \"#utility.yul\":1595:1596   */\n      0x00\n        /* \"#utility.yul\":1584:1593   */\n      dup4\n        /* \"#utility.yul\":1580:1597   */\n      add\n        /* \"#utility.yul\":1571:1577   */\n      dup5\n        /* \"#utility.yul\":1527:1598   */\n      tag_94\n      jump\t// in\n    tag_137:\n        /* \"#utility.yul\":1383:1605   */\n      swap3\n      swap2\n      pop\n      pop\n      jump\t// out\n        /* \"#utility.yul\":1611:1725   */\n    tag_95:\n        /* \"#utility.yul\":1678:1684   */\n      0x00\n        /* \"#utility.yul\":1712:1717   */\n      dup2\n        /* \"#utility.yul\":1706:1718   */\n      mload\n        /* \"#utility.yul\":1696:1718   */\n      swap1\n      pop\n        /* \"#utility.yul\":1611:1725   */\n      swap2\n      swap1\n      pop\n      jump\t// out\n        /* \"#utility.yul\":1731:1915   */\n    tag_96:\n        /* \"#utility.yul\":1830:1841   */\n      0x00\n        /* \"#utility.yul\":1864:1870   */\n      dup3\n        /* \"#utility.yul\":1859:1862   */\n      dup3\n        /* \"#utility.yul\":1852:1871   */\n      mstore\n        /* \"#utility.yul\":1904:1908   */\n      0x20\n        /* \"#utility.yul\":1899:1902   */\n      dup3\n        /* \"#utility.yul\":1895:1909   */\n      add\n        /* \"#utility.yul\":1880:1909   */\n      swap1\n      pop\n        /* \"#utility.yul\":1731:1915   */\n      swap3\n      swap2\n      pop\n      pop\n      jump\t// out\n        /* \"#utility.yul\":1921:2053   */\n    tag_97:\n        /* \"#utility.yul\":1988:1992   */\n      0x00\n        /* \"#utility.yul\":2011:2014   */\n      dup2\n        /* \"#utility.yul\":2003:2014   */\n      swap1\n      pop\n        /* \"#utility.yul\":2041:2045   */\n      0x20\n        /* \"#utility.yul\":2036:2039   */\n      dup3\n        /* \"#utility.yul\":2032:2046   */\n      add\n        /* \"#utility.yul\":2024:2046   */\n      swap1\n      pop\n        /* \"#utility.yul\":1921:2053   */\n      swap2\n      swap1\n      pop\n      jump\t// out\n        /* \"#utility.yul\":2059:2167   */\n    tag_98:\n        /* \"#utility.yul\":2136:2160   */\n      tag_142\n        /* \"#utility.yul\":2154:2159   */\n      dup2\n        /* \"#utility.yul\":2136:2160   */\n      tag_93\n      jump\t// in\n    tag_142:\n        /* \"#utility.yul\":2131:2134   */\n      dup3\n        /* \"#utility.yul\":2124:2161   */\n      mstore\n        /* \"#utility.yul\":2059:2167   */\n      pop\n      pop\n      jump\t// out\n        /* \"#utility.yul\":2173:2352   */\n    tag_99:\n        /* \"#utility.yul\":2242:2252   */\n      0x00\n        /* \"#utility.yul\":2263:2309   */\n      tag_144\n        /* \"#utility.yul\":2305:2308   */\n      dup4\n        /* \"#utility.yul\":2297:2303   */\n      dup4\n        /* \"#utility.yul\":2263:2309   */\n      tag_98\n      jump\t// in\n    tag_144:\n        /* \"#utility.yul\":2341:2345   */\n      0x20\n        /* \"#utility.yul\":2336:2339   */\n      dup4\n        /* \"#utility.yul\":2332:2346   */\n      add\n        /* \"#utility.yul\":2318:2346   */\n      swap1\n      pop\n        /* \"#utility.yul\":2173:2352   */\n      swap3\n      swap2\n      pop\n      pop\n      jump\t// out\n        /* \"#utility.yul\":2358:2471   */\n    tag_100:\n        /* \"#utility.yul\":2428:2432   */\n      0x00\n        /* \"#utility.yul\":2460:2464   */\n      0x20\n        /* \"#utility.yul\":2455:2458   */\n      dup3\n        /* \"#utility.yul\":2451:2465   */\n      add\n        /* \"#utility.yul\":2443:2465   */\n      swap1\n      pop\n        /* \"#utility.yul\":2358:2471   */\n      swap2\n      swap1\n      pop\n      jump\t// out\n        /* \"#utility.yul\":2507:3239   */\n    tag_101:\n        /* \"#utility.yul\":2626:2629   */\n      0x00\n        /* \"#utility.yul\":2655:2709   */\n      tag_147\n        /* \"#utility.yul\":2703:2708   */\n      dup3\n        /* \"#utility.yul\":2655:2709   */\n      tag_95\n      jump\t// in\n    tag_147:\n        /* \"#utility.yul\":2725:2811   */\n      tag_148\n        /* \"#utility.yul\":2804:2810   */\n      dup2\n        /* \"#utility.yul\":2799:2802   */\n      dup6\n        /* \"#utility.yul\":2725:2811   */\n      tag_96\n      jump\t// in\n    tag_148:\n        /* \"#utility.yul\":2718:2811   */\n      swap4\n      pop\n        /* \"#utility.yul\":2835:2891   */\n      tag_149\n        /* \"#utility.yul\":2885:2890   */\n      dup4\n        /* \"#utility.yul\":2835:2891   */\n      tag_97\n      jump\t// in\n    tag_149:\n        /* \"#utility.yul\":2914:2921   */\n      dup1\n        /* \"#utility.yul\":2945:2946   */\n      0x00\n        /* \"#utility.yul\":2930:3214   */\n    tag_150:\n        /* \"#utility.yul\":2955:2961   */\n      dup4\n        /* \"#utility.yul\":2952:2953   */\n      dup2\n        /* \"#utility.yul\":2949:2962   */\n      lt\n        /* \"#utility.yul\":2930:3214   */\n      iszero\n      tag_152\n      jumpi\n        /* \"#utility.yul\":3031:3037   */\n      dup2\n        /* \"#utility.yul\":3025:3038   */\n      mload\n        /* \"#utility.yul\":3058:3121   */\n      tag_153\n        /* \"#utility.yul\":3117:3120   */\n      dup9\n        /* \"#utility.yul\":3102:3115   */\n      dup3\n        /* \"#utility.yul\":3058:3121   */\n      tag_99\n      jump\t// in\n    tag_153:\n        /* \"#utility.yul\":3051:3121   */\n      swap8\n      pop\n        /* \"#utility.yul\":3144:3204   */\n      tag_154\n        /* \"#utility.yul\":3197:3203   */\n      dup4\n        /* \"#utility.yul\":3144:3204   */\n      tag_100\n      jump\t// in\n    tag_154:\n        /* \"#utility.yul\":3134:3204   */\n      swap3\n      pop\n        /* \"#utility.yul\":2990:3214   */\n      pop\n        /* \"#utility.yul\":2977:2978   */\n      0x01\n        /* \"#utility.yul\":2974:2975   */\n      dup2\n        /* \"#utility.yul\":2970:2979   */\n      add\n        /* \"#utility.yul\":2965:2979   */\n      swap1\n      pop\n        /* \"#utility.yul\":2930:3214   */\n      jump(tag_150)\n    tag_152:\n        /* \"#utility.yul\":2934:2948   */\n      pop\n        /* \"#utility.yul\":3230:3233   */\n      dup6\n        /* \"#utility.yul\":3223:3233   */\n      swap4\n      pop\n        /* \"#utility.yul\":2631:3239   */\n      pop\n      pop\n      pop\n        /* \"#utility.yul\":2507:3239   */\n      swap3\n      swap2\n      pop\n      pop\n      jump\t// out\n        /* \"#utility.yul\":3245:3359   */\n    tag_102:\n        /* \"#utility.yul\":3312:3318   */\n      0x00\n        /* \"#utility.yul\":3346:3351   */\n      dup2\n        /* \"#utility.yul\":3340:3352   */\n      mload\n        /* \"#utility.yul\":3330:3352   */\n      swap1\n      pop\n        /* \"#utility.yul\":3245:3359   */\n      swap2\n      swap1\n      pop\n      jump\t// out\n        /* \"#utility.yul\":3365:3549   */\n    tag_103:\n        /* \"#utility.yul\":3464:3475   */\n      0x00\n        /* \"#utility.yul\":3498:3504   */\n      dup3\n        /* \"#utility.yul\":3493:3496   */\n      dup3\n        /* \"#utility.yul\":3486:3505   */\n      mstore\n        /* \"#utility.yul\":3538:3542   */\n      0x20\n        /* \"#utility.yul\":3533:3536   */\n      dup3\n        /* \"#utility.yul\":3529:3543   */\n      add\n        /* \"#utility.yul\":3514:3543   */\n      swap1\n      pop\n        /* \"#utility.yul\":3365:3549   */\n      swap3\n      swap2\n      pop\n      pop\n      jump\t// out\n        /* \"#utility.yul\":3555:3687   */\n    tag_104:\n        /* \"#utility.yul\":3622:3626   */\n      0x00\n        /* \"#utility.yul\":3645:3648   */\n      dup2\n        /* \"#utility.yul\":3637:3648   */\n      swap1\n      pop\n        /* \"#utility.yul\":3675:3679   */\n      0x20\n        /* \"#utility.yul\":3670:3673   */\n      dup3\n        /* \"#utility.yul\":3666:3680   */\n      add\n        /* \"#utility.yul\":3658:3680   */\n      swap1\n      pop\n        /* \"#utility.yul\":3555:3687   */\n      swap2\n      swap1\n      pop\n      jump\t// out\n        /* \"#utility.yul\":3693:3801   */\n    tag_105:\n        /* \"#utility.yul\":3770:3794   */\n      tag_159\n        /* \"#utility.yul\":3788:3793   */\n      dup2\n        /* \"#utility.yul\":3770:3794   */\n      tag_89\n      jump\t// in\n    tag_159:\n        /* \"#utility.yul\":3765:3768   */\n      dup3\n        /* \"#utility.yul\":3758:3795   */\n      mstore\n        /* \"#utility.yul\":3693:3801   */\n      pop\n      pop\n      jump\t// out\n        /* \"#utility.yul\":3807:3986   */\n    tag_106:\n        /* \"#utility.yul\":3876:3886   */\n      0x00\n        /* \"#utility.yul\":3897:3943   */\n      tag_161\n        /* \"#utility.yul\":3939:3942   */\n      dup4\n        /* \"#utility.yul\":3931:3937   */\n      dup4\n        /* \"#utility.yul\":3897:3943   */\n      tag_105\n      jump\t// in\n    tag_161:\n        /* \"#utility.yul\":3975:3979   */\n      0x20\n        /* \"#utility.yul\":3970:3973   */\n      dup4\n        /* \"#utility.yul\":3966:3980   */\n      add\n        /* \"#utility.yul\":3952:3980   */\n      swap1\n      pop\n        /* \"#utility.yul\":3807:3986   */\n      swap3\n      swap2\n      pop\n      pop\n      jump\t// out\n        /* \"#utility.yul\":3992:4105   */\n    tag_107:\n        /* \"#utility.yul\":4062:4066   */\n      0x00\n        /* \"#utility.yul\":4094:4098   */\n      0x20\n        /* \"#utility.yul\":4089:4092   */\n      dup3\n        /* \"#utility.yul\":4085:4099   */\n      add\n        /* \"#utility.yul\":4077:4099   */\n      swap1\n      pop\n        /* \"#utility.yul\":3992:4105   */\n      swap2\n      swap1\n      pop\n      jump\t// out\n        /* \"#utility.yul\":4141:4873   */\n    tag_108:\n        /* \"#utility.yul\":4260:4263   */\n      0x00\n        /* \"#utility.yul\":4289:4343   */\n      tag_164\n        /* \"#utility.yul\":4337:4342   */\n      dup3\n        /* \"#utility.yul\":4289:4343   */\n      tag_102\n      jump\t// in\n    tag_164:\n        /* \"#utility.yul\":4359:4445   */\n      tag_165\n        /* \"#utility.yul\":4438:4444   */\n      dup2\n        /* \"#utility.yul\":4433:4436   */\n      dup6\n        /* \"#utility.yul\":4359:4445   */\n      tag_103\n      jump\t// in\n    tag_165:\n        /* \"#utility.yul\":4352:4445   */\n      swap4\n      pop\n        /* \"#utility.yul\":4469:4525   */\n      tag_166\n        /* \"#utility.yul\":4519:4524   */\n      dup4\n        /* \"#utility.yul\":4469:4525   */\n      tag_104\n      jump\t// in\n    tag_166:\n        /* \"#utility.yul\":4548:4555   */\n      dup1\n        /* \"#utility.yul\":4579:4580   */\n      0x00\n        /* \"#utility.yul\":4564:4848   */\n    tag_167:\n        /* \"#utility.yul\":4589:4595   */\n      dup4\n        /* \"#utility.yul\":4586:4587   */\n      dup2\n        /* \"#utility.yul\":4583:4596   */\n      lt\n        /* \"#utility.yul\":4564:4848   */\n      iszero\n      tag_169\n      jumpi\n        /* \"#utility.yul\":4665:4671   */\n      dup2\n        /* \"#utility.yul\":4659:4672   */\n      mload\n        /* \"#utility.yul\":4692:4755   */\n      tag_170\n        /* \"#utility.yul\":4751:4754   */\n      dup9\n        /* \"#utility.yul\":4736:4749   */\n      dup3\n        /* \"#utility.yul\":4692:4755   */\n      tag_106\n      jump\t// in\n    tag_170:\n        /* \"#utility.yul\":4685:4755   */\n      swap8\n      pop\n        /* \"#utility.yul\":4778:4838   */\n      tag_171\n        /* \"#utility.yul\":4831:4837   */\n      dup4\n        /* \"#utility.yul\":4778:4838   */\n      tag_107\n      jump\t// in\n    tag_171:\n        /* \"#utility.yul\":4768:4838   */\n      swap3\n      pop\n        /* \"#utility.yul\":4624:4848   */\n      pop\n        /* \"#utility.yul\":4611:4612   */\n      0x01\n        /* \"#utility.yul\":4608:4609   */\n      dup2\n        /* \"#utility.yul\":4604:4613   */\n      add\n        /* \"#utility.yul\":4599:4613   */\n      swap1\n      pop\n        /* \"#utility.yul\":4564:4848   */\n      jump(tag_167)\n    tag_169:\n        /* \"#utility.yul\":4568:4582   */\n      pop\n        /* \"#utility.yul\":4864:4867   */\n      dup6\n        /* \"#utility.yul\":4857:4867   */\n      swap4\n      pop\n        /* \"#utility.yul\":4265:4873   */\n      pop\n      pop\n      pop\n        /* \"#utility.yul\":4141:4873   */\n      swap3\n      swap2\n      pop\n      pop\n      jump\t// out\n        /* \"#utility.yul\":4879:5513   */\n    tag_24:\n        /* \"#utility.yul\":5100:5104   */\n      0x00\n        /* \"#utility.yul\":5138:5140   */\n      0x40\n        /* \"#utility.yul\":5127:5136   */\n      dup3\n        /* \"#utility.yul\":5123:5141   */\n      add\n        /* \"#utility.yul\":5115:5141   */\n      swap1\n      pop\n        /* \"#utility.yul\":5187:5196   */\n      dup2\n        /* \"#utility.yul\":5181:5185   */\n      dup2\n        /* \"#utility.yul\":5177:5197   */\n      sub\n        /* \"#utility.yul\":5173:5174   */\n      0x00\n        /* \"#utility.yul\":5162:5171   */\n      dup4\n        /* \"#utility.yul\":5158:5175   */\n      add\n        /* \"#utility.yul\":5151:5198   */\n      mstore\n        /* \"#utility.yul\":5215:5323   */\n      tag_173\n        /* \"#utility.yul\":5318:5322   */\n      dup2\n        /* \"#utility.yul\":5309:5315   */\n      dup6\n        /* \"#utility.yul\":5215:5323   */\n      tag_101\n      jump\t// in\n    tag_173:\n        /* \"#utility.yul\":5207:5323   */\n      swap1\n      pop\n        /* \"#utility.yul\":5370:5379   */\n      dup2\n        /* \"#utility.yul\":5364:5368   */\n      dup2\n        /* \"#utility.yul\":5360:5380   */\n      sub\n        /* \"#utility.yul\":5355:5357   */\n      0x20\n        /* \"#utility.yul\":5344:5353   */\n      dup4\n        /* \"#utility.yul\":5340:5358   */\n      add\n        /* \"#utility.yul\":5333:5381   */\n      mstore\n        /* \"#utility.yul\":5398:5506   */\n      tag_174\n        /* \"#utility.yul\":5501:5505   */\n      dup2\n        /* \"#utility.yul\":5492:5498   */\n      dup5\n        /* \"#utility.yul\":5398:5506   */\n      tag_108\n      jump\t// in\n    tag_174:\n        /* \"#utility.yul\":5390:5506   */\n      swap1\n      pop\n        /* \"#utility.yul\":4879:5513   */\n      swap4\n      swap3\n      pop\n      pop\n      pop\n      jump\t// out\n        /* \"#utility.yul\":5519:5641   */\n    tag_109:\n        /* \"#utility.yul\":5592:5616   */\n      tag_176\n        /* \"#utility.yul\":5610:5615   */\n      dup2\n        /* \"#utility.yul\":5592:5616   */\n      tag_93\n      jump\t// in\n    tag_176:\n        /* \"#utility.yul\":5585:5590   */\n      dup2\n        /* \"#utility.yul\":5582:5617   */\n      eq\n        /* \"#utility.yul\":5572:5635   */\n      tag_177\n      jumpi\n        /* \"#utility.yul\":5631:5632   */\n      0x00\n        /* \"#utility.yul\":5628:5629   */\n      0x00\n        /* \"#utility.yul\":5621:5633   */\n      revert\n        /* \"#utility.yul\":5572:5635   */\n    tag_177:\n        /* \"#utility.yul\":5519:5641   */\n      pop\n      jump\t// out\n        /* \"#utility.yul\":5647:5786   */\n    tag_110:\n        /* \"#utility.yul\":5693:5698   */\n      0x00\n        /* \"#utility.yul\":5731:5737   */\n      dup2\n        /* \"#utility.yul\":5718:5738   */\n      calldataload\n        /* \"#utility.yul\":5709:5738   */\n      swap1\n      pop\n        /* \"#utility.yul\":5747:5780   */\n      tag_179\n        /* \"#utility.yul\":5774:5779   */\n      dup2\n        /* \"#utility.yul\":5747:5780   */\n      tag_109\n      jump\t// in\n    tag_179:\n        /* \"#utility.yul\":5647:5786   */\n      swap3\n      swap2\n      pop\n      pop\n      jump\t// out\n        /* \"#utility.yul\":5792:6121   */\n    tag_27:\n        /* \"#utility.yul\":5851:5857   */\n      0x00\n        /* \"#utility.yul\":5900:5902   */\n      0x20\n        /* \"#utility.yul\":5888:5897   */\n      dup3\n        /* \"#utility.yul\":5879:5886   */\n      dup5\n        /* \"#utility.yul\":5875:5898   */\n      sub\n        /* \"#utility.yul\":5871:5903   */\n      slt\n        /* \"#utility.yul\":5868:5987   */\n      iszero\n      tag_181\n      jumpi\n        /* \"#utility.yul\":5906:5985   */\n      tag_182\n      tag_87\n      jump\t// in\n    tag_182:\n        /* \"#utility.yul\":5868:5987   */\n    tag_181:\n        /* \"#utility.yul\":6026:6027   */\n      0x00\n        /* \"#utility.yul\":6051:6104   */\n      tag_183\n        /* \"#utility.yul\":6096:6103   */\n      dup5\n        /* \"#utility.yul\":6087:6093   */\n      dup3\n        /* \"#utility.yul\":6076:6085   */\n      dup6\n        /* \"#utility.yul\":6072:6094   */\n      add\n        /* \"#utility.yul\":6051:6104   */\n      tag_110\n      jump\t// in\n    tag_183:\n        /* \"#utility.yul\":6041:6104   */\n      swap2\n      pop\n        /* \"#utility.yul\":5997:6114   */\n      pop\n        /* \"#utility.yul\":5792:6121   */\n      swap3\n      swap2\n      pop\n      pop\n      jump\t// out\n        /* \"#utility.yul\":6127:6245   */\n    tag_111:\n        /* \"#utility.yul\":6214:6238   */\n      tag_185\n        /* \"#utility.yul\":6232:6237   */\n      dup2\n        /* \"#utility.yul\":6214:6238   */\n      tag_89\n      jump\t// in\n    tag_185:\n        /* \"#utility.yul\":6209:6212   */\n      dup3\n        /* \"#utility.yul\":6202:6239   */\n      mstore\n        /* \"#utility.yul\":6127:6245   */\n      pop\n      pop\n      jump\t// out\n        /* \"#utility.yul\":6251:6473   */\n    tag_30:\n        /* \"#utility.yul\":6344:6348   */\n      0x00\n        /* \"#utility.yul\":6382:6384   */\n      0x20\n        /* \"#utility.yul\":6371:6380   */\n      dup3\n        /* \"#utility.yul\":6367:6385   */\n      add\n        /* \"#utility.yul\":6359:6385   */\n      swap1\n      pop\n        /* \"#utility.yul\":6395:6466   */\n      tag_187\n        /* \"#utility.yul\":6463:6464   */\n      0x00\n        /* \"#utility.yul\":6452:6461   */\n      dup4\n        /* \"#utility.yul\":6448:6465   */\n      add\n        /* \"#utility.yul\":6439:6445   */\n      dup5\n        /* \"#utility.yul\":6395:6466   */\n      tag_111\n      jump\t// in\n    tag_187:\n        /* \"#utility.yul\":6251:6473   */\n      swap3\n      swap2\n      pop\n      pop\n      jump\t// out\n        /* \"#utility.yul\":6479:6569   */\n    tag_112:\n        /* \"#utility.yul\":6513:6520   */\n      0x00\n        /* \"#utility.yul\":6556:6561   */\n      dup2\n        /* \"#utility.yul\":6549:6562   */\n      iszero\n        /* \"#utility.yul\":6542:6563   */\n      iszero\n        /* \"#utility.yul\":6531:6563   */\n      swap1\n      pop\n        /* \"#utility.yul\":6479:6569   */\n      swap2\n      swap1\n      pop\n      jump\t// out\n        /* \"#utility.yul\":6575:6684   */\n    tag_113:\n        /* \"#utility.yul\":6656:6677   */\n      tag_190\n        /* \"#utility.yul\":6671:6676   */\n      dup2\n        /* \"#utility.yul\":6656:6677   */\n      tag_112\n      jump\t// in\n    tag_190:\n        /* \"#utility.yul\":6651:6654   */\n      dup3\n        /* \"#utility.yul\":6644:6678   */\n      mstore\n        /* \"#utility.yul\":6575:6684   */\n      pop\n      pop\n      jump\t// out\n        /* \"#utility.yul\":6690:6900   */\n    tag_38:\n        /* \"#utility.yul\":6777:6781   */\n      0x00\n        /* \"#utility.yul\":6815:6817   */\n      0x20\n        /* \"#utility.yul\":6804:6813   */\n      dup3\n        /* \"#utility.yul\":6800:6818   */\n      add\n        /* \"#utility.yul\":6792:6818   */\n      swap1\n      pop\n        /* \"#utility.yul\":6828:6893   */\n      tag_192\n        /* \"#utility.yul\":6890:6891   */\n      0x00\n        /* \"#utility.yul\":6879:6888   */\n      dup4\n        /* \"#utility.yul\":6875:6892   */\n      add\n        /* \"#utility.yul\":6866:6872   */\n      dup5\n        /* \"#utility.yul\":6828:6893   */\n      tag_113\n      jump\t// in\n    tag_192:\n        /* \"#utility.yul\":6690:6900   */\n      swap3\n      swap2\n      pop\n      pop\n      jump\t// out\n        /* \"#utility.yul\":6906:7238   */\n    tag_43:\n        /* \"#utility.yul\":7027:7031   */\n      0x00\n        /* \"#utility.yul\":7065:7067   */\n      0x40\n        /* \"#utility.yul\":7054:7063   */\n      dup3\n        /* \"#utility.yul\":7050:7068   */\n      add\n        /* \"#utility.yul\":7042:7068   */\n      swap1\n      pop\n        /* \"#utility.yul\":7078:7149   */\n      tag_194\n        /* \"#utility.yul\":7146:7147   */\n      0x00\n        /* \"#utility.yul\":7135:7144   */\n      dup4\n        /* \"#utility.yul\":7131:7148   */\n      add\n        /* \"#utility.yul\":7122:7128   */\n      dup6\n        /* \"#utility.yul\":7078:7149   */\n      tag_94\n      jump\t// in\n    tag_194:\n        /* \"#utility.yul\":7159:7231   */\n      tag_195\n        /* \"#utility.yul\":7227:7229   */\n      0x20\n        /* \"#utility.yul\":7216:7225   */\n      dup4\n        /* \"#utility.yul\":7212:7230   */\n      add\n        /* \"#utility.yul\":7203:7209   */\n      dup5\n        /* \"#utility.yul\":7159:7231   */\n      tag_111\n      jump\t// in\n    tag_195:\n        /* \"#utility.yul\":6906:7238   */\n      swap4\n      swap3\n      pop\n      pop\n      pop\n      jump\t// out\n        /* \"#utility.yul\":7244:7424   */\n    tag_56:\n        /* \"#utility.yul\":7292:7369   */\n      0x4e487b7100000000000000000000000000000000000000000000000000000000\n        /* \"#utility.yul\":7289:7290   */\n      0x00\n        /* \"#utility.yul\":7282:7370   */\n      mstore\n        /* \"#utility.yul\":7389:7393   */\n      0x41\n        /* \"#utility.yul\":7386:7387   */\n      0x04\n        /* \"#utility.yul\":7379:7394   */\n      mstore\n        /* \"#utility.yul\":7413:7417   */\n      0x24\n        /* \"#utility.yul\":7410:7411   */\n      0x00\n        /* \"#utility.yul\":7403:7418   */\n      revert\n        /* \"#utility.yul\":7430:7610   */\n    tag_66:\n        /* \"#utility.yul\":7478:7555   */\n      0x4e487b7100000000000000000000000000000000000000000000000000000000\n        /* \"#utility.yul\":7475:7476   */\n      0x00\n        /* \"#utility.yul\":7468:7556   */\n      mstore\n        /* \"#utility.yul\":7575:7579   */\n      0x32\n        /* \"#utility.yul\":7572:7573   */\n      0x04\n        /* \"#utility.yul\":7565:7580   */\n      mstore\n        /* \"#utility.yul\":7599:7603   */\n      0x24\n        /* \"#utility.yul\":7596:7597   */\n      0x00\n        /* \"#utility.yul\":7589:7604   */\n      revert\n        /* \"#utility.yul\":7616:7785   */\n    tag_114:\n        /* \"#utility.yul\":7700:7711   */\n      0x00\n        /* \"#utility.yul\":7734:7740   */\n      dup3\n        /* \"#utility.yul\":7729:7732   */\n      dup3\n        /* \"#utility.yul\":7722:7741   */\n      mstore\n        /* \"#utility.yul\":7774:7778   */\n      0x20\n        /* \"#utility.yul\":7769:7772   */\n      dup3\n        /* \"#utility.yul\":7765:7779   */\n      add\n        /* \"#utility.yul\":7750:7779   */\n      swap1\n      pop\n        /* \"#utility.yul\":7616:7785   */\n      swap3\n      swap2\n      pop\n      pop\n      jump\t// out\n        /* \"#utility.yul\":7791:7960   */\n    tag_115:\n        /* \"#utility.yul\":7931:7952   */\n      0x496e646578206f7574206f6620626f756e647300000000000000000000000000\n        /* \"#utility.yul\":7927:7928   */\n      0x00\n        /* \"#utility.yul\":7919:7925   */\n      dup3\n        /* \"#utility.yul\":7915:7929   */\n      add\n        /* \"#utility.yul\":7908:7953   */\n      mstore\n        /* \"#utility.yul\":7791:7960   */\n      pop\n      jump\t// out\n        /* \"#utility.yul\":7966:8332   */\n    tag_116:\n        /* \"#utility.yul\":8108:8111   */\n      0x00\n        /* \"#utility.yul\":8129:8196   */\n      tag_201\n        /* \"#utility.yul\":8193:8195   */\n      0x13\n        /* \"#utility.yul\":8188:8191   */\n      dup4\n        /* \"#utility.yul\":8129:8196   */\n      tag_114\n      jump\t// in\n    tag_201:\n        /* \"#utility.yul\":8122:8196   */\n      swap2\n      pop\n        /* \"#utility.yul\":8205:8298   */\n      tag_202\n        /* \"#utility.yul\":8294:8297   */\n      dup3\n        /* \"#utility.yul\":8205:8298   */\n      tag_115\n      jump\t// in\n    tag_202:\n        /* \"#utility.yul\":8323:8325   */\n      0x20\n        /* \"#utility.yul\":8318:8321   */\n      dup3\n        /* \"#utility.yul\":8314:8326   */\n      add\n        /* \"#utility.yul\":8307:8326   */\n      swap1\n      pop\n        /* \"#utility.yul\":7966:8332   */\n      swap2\n      swap1\n      pop\n      jump\t// out\n        /* \"#utility.yul\":8338:8757   */\n    tag_76:\n        /* \"#utility.yul\":8504:8508   */\n      0x00\n        /* \"#utility.yul\":8542:8544   */\n      0x20\n        /* \"#utility.yul\":8531:8540   */\n      dup3\n        /* \"#utility.yul\":8527:8545   */\n      add\n        /* \"#utility.yul\":8519:8545   */\n      swap1\n      pop\n        /* \"#utility.yul\":8591:8600   */\n      dup2\n        /* \"#utility.yul\":8585:8589   */\n      dup2\n        /* \"#utility.yul\":8581:8601   */\n      sub\n        /* \"#utility.yul\":8577:8578   */\n      0x00\n        /* \"#utility.yul\":8566:8575   */\n      dup4\n        /* \"#utility.yul\":8562:8579   */\n      add\n        /* \"#utility.yul\":8555:8602   */\n      mstore\n        /* \"#utility.yul\":8619:8750   */\n      tag_204\n        /* \"#utility.yul\":8745:8749   */\n      dup2\n        /* \"#utility.yul\":8619:8750   */\n      tag_116\n      jump\t// in\n    tag_204:\n        /* \"#utility.yul\":8611:8750   */\n      swap1\n      pop\n        /* \"#utility.yul\":8338:8757   */\n      swap2\n      swap1\n      pop\n      jump\t// out\n\n    auxdata: 0xa2646970667358221220cd243ffc339b8c9313a784c1b97d01edd94c81fa087204ae0e5638d8bfc2b59d64736f6c634300081e0033\n}\n",
				"bytecode": {
					"linkReferences": {},
					"object": "6080604052348015600e575f5ffd5b50610ae18061001c5f395ff3fe608060405234801561000f575f5ffd5b5060043610610086575f3560e01c8063b5cb15f711610059578063b5cb15f714610125578063e3874b2914610143578063f72830d414610173578063ffcc7bbf146101a457610086565b8063365b98b21461008a5780633bdd0734146100ba57806353ed5143146100d657806390a82112146100f5575b5f5ffd5b6100a4600480360381019061009f91906106dc565b6101d4565b6040516100b19190610746565b60405180910390f35b6100d460048036038101906100cf91906106dc565b61020f565b005b6100de610357565b6040516100ec9291906108cd565b60405180910390f35b61010f600480360381019061010a919061092c565b61050d565b60405161011c9190610966565b60405180910390f35b61012d610521565b60405161013a9190610966565b60405180910390f35b61015d6004803603810190610158919061092c565b61052d565b60405161016a9190610999565b60405180910390f35b61018d600480360381019061018891906106dc565b61054a565b60405161019b9291906109b2565b60405180910390f35b6101be60048036038101906101b991906106dc565b61061a565b6040516101cb9190610746565b60405180910390f35b600181815481106101e3575f80fd5b905f5260205f20015f915054906101000a900473ffffffffffffffffffffffffffffffffffffffff1681565b805f5f3373ffffffffffffffffffffffffffffffffffffffff1673ffffffffffffffffffffffffffffffffffffffff1681526020019081526020015f208190555060025f3373ffffffffffffffffffffffffffffffffffffffff1673ffffffffffffffffffffffffffffffffffffffff1681526020019081526020015f205f9054906101000a900460ff1661035457600133908060018154018082558091505060019003905f5260205f20015f9091909190916101000a81548173ffffffffffffffffffffffffffffffffffffffff021916908373ffffffffffffffffffffffffffffffffffffffff160217905550600160025f3373ffffffffffffffffffffffffffffffffffffffff1673ffffffffffffffffffffffffffffffffffffffff1681526020019081526020015f205f6101000a81548160ff0219169083151502179055505b50565b6060805f60018054905090505f8167ffffffffffffffff81111561037e5761037d6109d9565b5b6040519080825280602002602001820160405280156103ac5781602001602082028036833780820191505090505b5090505f8267ffffffffffffffff8111156103ca576103c96109d9565b5b6040519080825280602002602001820160405280156103f85781602001602082028036833780820191505090505b5090505f5f90505b838110156104ff575f6001828154811061041d5761041c610a06565b5b905f5260205f20015f9054906101000a900473ffffffffffffffffffffffffffffffffffffffff1690508084838151811061045b5761045a610a06565b5b602002602001019073ffffffffffffffffffffffffffffffffffffffff16908173ffffffffffffffffffffffffffffffffffffffff16815250505f5f8273ffffffffffffffffffffffffffffffffffffffff1673ffffffffffffffffffffffffffffffffffffffff1681526020019081526020015f20548383815181106104e5576104e4610a06565b5b602002602001018181525050508080600101915050610400565b508181945094505050509091565b5f602052805f5260405f205f915090505481565b5f600180549050905090565b6002602052805f5260405f205f915054906101000a900460ff1681565b5f5f6001805490508310610593576040517f08c379a000000000000000000000000000000000000000000000000000000000815260040161058a90610a8d565b60405180910390fd5b5f600184815481106105a8576105a7610a06565b5b905f5260205f20015f9054906101000a900473ffffffffffffffffffffffffffffffffffffffff169050805f5f8373ffffffffffffffffffffffffffffffffffffffff1673ffffffffffffffffffffffffffffffffffffffff1681526020019081526020015f20549250925050915091565b5f6001805490508210610662576040517f08c379a000000000000000000000000000000000000000000000000000000000815260040161065990610a8d565b60405180910390fd5b6001828154811061067657610675610a06565b5b905f5260205f20015f9054906101000a900473ffffffffffffffffffffffffffffffffffffffff169050919050565b5f5ffd5b5f819050919050565b6106bb816106a9565b81146106c5575f5ffd5b50565b5f813590506106d6816106b2565b92915050565b5f602082840312156106f1576106f06106a5565b5b5f6106fe848285016106c8565b91505092915050565b5f73ffffffffffffffffffffffffffffffffffffffff82169050919050565b5f61073082610707565b9050919050565b61074081610726565b82525050565b5f6020820190506107595f830184610737565b92915050565b5f81519050919050565b5f82825260208201905092915050565b5f819050602082019050919050565b61079181610726565b82525050565b5f6107a28383610788565b60208301905092915050565b5f602082019050919050565b5f6107c48261075f565b6107ce8185610769565b93506107d983610779565b805f5b838110156108095781516107f08882610797565b97506107fb836107ae565b9250506001810190506107dc565b5085935050505092915050565b5f81519050919050565b5f82825260208201905092915050565b5f819050602082019050919050565b610848816106a9565b82525050565b5f610859838361083f565b60208301905092915050565b5f602082019050919050565b5f61087b82610816565b6108858185610820565b935061089083610830565b805f5b838110156108c05781516108a7888261084e565b97506108b283610865565b925050600181019050610893565b5085935050505092915050565b5f6040820190508181035f8301526108e581856107ba565b905081810360208301526108f98184610871565b90509392505050565b61090b81610726565b8114610915575f5ffd5b50565b5f8135905061092681610902565b92915050565b5f60208284031215610941576109406106a5565b5b5f61094e84828501610918565b91505092915050565b610960816106a9565b82525050565b5f6020820190506109795f830184610957565b92915050565b5f8115159050919050565b6109938161097f565b82525050565b5f6020820190506109ac5f83018461098a565b92915050565b5f6040820190506109c55f830185610737565b6109d26020830184610957565b9392505050565b7f4e487b71000000000000000000000000000000000000000000000000000000005f52604160045260245ffd5b7f4e487b71000000000000000000000000000000000000000000000000000000005f52603260045260245ffd5b5f82825260208201905092915050565b7f496e646578206f7574206f6620626f756e6473000000000000000000000000005f82015250565b5f610a77601383610a33565b9150610a8282610a43565b602082019050919050565b5f6020820190508181035f830152610aa481610a6b565b905091905056fea2646970667358221220cd243ffc339b8c9313a784c1b97d01edd94c81fa087204ae0e5638d8bfc2b59d64736f6c634300081e0033",
					"opcodes": "PUSH1 0x80 PUSH1 0x40 MSTORE CALLVALUE DUP1 ISZERO PUSH1 0xE JUMPI PUSH0 PUSH0 REVERT JUMPDEST POP PUSH2 0xAE1 DUP1 PUSH2 0x1C PUSH0 CODECOPY PUSH0 RETURN INVALID PUSH1 0x80 PUSH1 0x40 MSTORE CALLVALUE DUP1 ISZERO PUSH2 0xF JUMPI PUSH0 PUSH0 REVERT JUMPDEST POP PUSH1 0x4 CALLDATASIZE LT PUSH2 0x86 JUMPI PUSH0 CALLDATALOAD PUSH1 0xE0 SHR DUP1 PUSH4 0xB5CB15F7 GT PUSH2 0x59 JUMPI DUP1 PUSH4 0xB5CB15F7 EQ PUSH2 0x125 JUMPI DUP1 PUSH4 0xE3874B29 EQ PUSH2 0x143 JUMPI DUP1 PUSH4 0xF72830D4 EQ PUSH2 0x173 JUMPI DUP1 PUSH4 0xFFCC7BBF EQ PUSH2 0x1A4 JUMPI PUSH2 0x86 JUMP JUMPDEST DUP1 PUSH4 0x365B98B2 EQ PUSH2 0x8A JUMPI DUP1 PUSH4 0x3BDD0734 EQ PUSH2 0xBA JUMPI DUP1 PUSH4 0x53ED5143 EQ PUSH2 0xD6 JUMPI DUP1 PUSH4 0x90A82112 EQ PUSH2 0xF5 JUMPI JUMPDEST PUSH0 PUSH0 REVERT JUMPDEST PUSH2 0xA4 PUSH1 0x4 DUP1 CALLDATASIZE SUB DUP2 ADD SWAP1 PUSH2 0x9F SWAP2 SWAP1 PUSH2 0x6DC JUMP JUMPDEST PUSH2 0x1D4 JUMP JUMPDEST PUSH1 0x40 MLOAD PUSH2 0xB1 SWAP2 SWAP1 PUSH2 0x746 JUMP JUMPDEST PUSH1 0x40 MLOAD DUP1 SWAP2 SUB SWAP1 RETURN JUMPDEST PUSH2 0xD4 PUSH1 0x4 DUP1 CALLDATASIZE SUB DUP2 ADD SWAP1 PUSH2 0xCF SWAP2 SWAP1 PUSH2 0x6DC JUMP JUMPDEST PUSH2 0x20F JUMP JUMPDEST STOP JUMPDEST PUSH2 0xDE PUSH2 0x357 JUMP JUMPDEST PUSH1 0x40 MLOAD PUSH2 0xEC SWAP3 SWAP2 SWAP1 PUSH2 0x8CD JUMP JUMPDEST PUSH1 0x40 MLOAD DUP1 SWAP2 SUB SWAP1 RETURN JUMPDEST PUSH2 0x10F PUSH1 0x4 DUP1 CALLDATASIZE SUB DUP2 ADD SWAP1 PUSH2 0x10A SWAP2 SWAP1 PUSH2 0x92C JUMP JUMPDEST PUSH2 0x50D JUMP JUMPDEST PUSH1 0x40 MLOAD PUSH2 0x11C SWAP2 SWAP1 PUSH2 0x966 JUMP JUMPDEST PUSH1 0x40 MLOAD DUP1 SWAP2 SUB SWAP1 RETURN JUMPDEST PUSH2 0x12D PUSH2 0x521 JUMP JUMPDEST PUSH1 0x40 MLOAD PUSH2 0x13A SWAP2 SWAP1 PUSH2 0x966 JUMP JUMPDEST PUSH1 0x40 MLOAD DUP1 SWAP2 SUB SWAP1 RETURN JUMPDEST PUSH2 0x15D PUSH1 0x4 DUP1 CALLDATASIZE SUB DUP2 ADD SWAP1 PUSH2 0x158 SWAP2 SWAP1 PUSH2 0x92C JUMP JUMPDEST PUSH2 0x52D JUMP JUMPDEST PUSH1 0x40 MLOAD PUSH2 0x16A SWAP2 SWAP1 PUSH2 0x999 JUMP JUMPDEST PUSH1 0x40 MLOAD DUP1 SWAP2 SUB SWAP1 RETURN JUMPDEST PUSH2 0x18D PUSH1 0x4 DUP1 CALLDATASIZE SUB DUP2 ADD SWAP1 PUSH2 0x188 SWAP2 SWAP1 PUSH2 0x6DC JUMP JUMPDEST PUSH2 0x54A JUMP JUMPDEST PUSH1 0x40 MLOAD PUSH2 0x19B SWAP3 SWAP2 SWAP1 PUSH2 0x9B2 JUMP JUMPDEST PUSH1 0x40 MLOAD DUP1 SWAP2 SUB SWAP1 RETURN JUMPDEST PUSH2 0x1BE PUSH1 0x4 DUP1 CALLDATASIZE SUB DUP2 ADD SWAP1 PUSH2 0x1B9 SWAP2 SWAP1 PUSH2 0x6DC JUMP JUMPDEST PUSH2 0x61A JUMP JUMPDEST PUSH1 0x40 MLOAD PUSH2 0x1CB SWAP2 SWAP1 PUSH2 0x746 JUMP JUMPDEST PUSH1 0x40 MLOAD DUP1 SWAP2 SUB SWAP1 RETURN JUMPDEST PUSH1 0x1 DUP2 DUP2 SLOAD DUP2 LT PUSH2 0x1E3 JUMPI PUSH0 DUP1 REVERT JUMPDEST SWAP1 PUSH0 MSTORE PUSH1 0x20 PUSH0 KECCAK256 ADD PUSH0 SWAP2 POP SLOAD SWAP1 PUSH2 0x100 EXP SWAP1 DIV PUSH20 0xFFFFFFFFFFFFFFFFFFFFFFFFFFFFFFFFFFFFFFFF AND DUP2 JUMP JUMPDEST DUP1 PUSH0 PUSH0 CALLER PUSH20 0xFFFFFFFFFFFFFFFFFFFFFFFFFFFFFFFFFFFFFFFF AND PUSH20 0xFFFFFFFFFFFFFFFFFFFFFFFFFFFFFFFFFFFFFFFF AND DUP2 MSTORE PUSH1 0x20 ADD SWAP1 DUP2 MSTORE PUSH1 0x20 ADD PUSH0 KECCAK256 DUP2 SWAP1 SSTORE POP PUSH1 0x2 PUSH0 CALLER PUSH20 0xFFFFFFFFFFFFFFFFFFFFFFFFFFFFFFFFFFFFFFFF AND PUSH20 0xFFFFFFFFFFFFFFFFFFFFFFFFFFFFFFFFFFFFFFFF AND DUP2 MSTORE PUSH1 0x20 ADD SWAP1 DUP2 MSTORE PUSH1 0x20 ADD PUSH0 KECCAK256 PUSH0 SWAP1 SLOAD SWAP1 PUSH2 0x100 EXP SWAP1 DIV PUSH1 0xFF AND PUSH2 0x354 JUMPI PUSH1 0x1 CALLER SWAP1 DUP1 PUSH1 0x1 DUP2 SLOAD ADD DUP1 DUP3 SSTORE DUP1 SWAP2 POP POP PUSH1 0x1 SWAP1 SUB SWAP1 PUSH0 MSTORE PUSH1 0x20 PUSH0 KECCAK256 ADD PUSH0 SWAP1 SWAP2 SWAP1 SWAP2 SWAP1 SWAP2 PUSH2 0x100 EXP DUP2 SLOAD DUP2 PUSH20 0xFFFFFFFFFFFFFFFFFFFFFFFFFFFFFFFFFFFFFFFF MUL NOT AND SWAP1 DUP4 PUSH20 0xFFFFFFFFFFFFFFFFFFFFFFFFFFFFFFFFFFFFFFFF AND MUL OR SWAP1 SSTORE POP PUSH1 0x1 PUSH1 0x2 PUSH0 CALLER PUSH20 0xFFFFFFFFFFFFFFFFFFFFFFFFFFFFFFFFFFFFFFFF AND PUSH20 0xFFFFFFFFFFFFFFFFFFFFFFFFFFFFFFFFFFFFFFFF AND DUP2 MSTORE PUSH1 0x20 ADD SWAP1 DUP2 MSTORE PUSH1 0x20 ADD PUSH0 KECCAK256 PUSH0 PUSH2 0x100 EXP DUP2 SLOAD DUP2 PUSH1 0xFF MUL NOT AND SWAP1 DUP4 ISZERO ISZERO MUL OR SWAP1 SSTORE POP JUMPDEST POP JUMP JUMPDEST PUSH1 0x60 DUP1 PUSH0 PUSH1 0x1 DUP1 SLOAD SWAP1 POP SWAP1 POP PUSH0 DUP2 PUSH8 0xFFFFFFFFFFFFFFFF DUP2 GT ISZERO PUSH2 0x37E JUMPI PUSH2 0x37D PUSH2 0x9D9 JUMP JUMPDEST JUMPDEST PUSH1 0x40 MLOAD SWAP1 DUP1 DUP3 MSTORE DUP1 PUSH1 0x20 MUL PUSH1 0x20 ADD DUP3 ADD PUSH1 0x40 MSTORE DUP1 ISZERO PUSH2 0x3AC JUMPI DUP2 PUSH1 0x20 ADD PUSH1 0x20 DUP3 MUL DUP1 CALLDATASIZE DUP4 CALLDATACOPY DUP1 DUP3 ADD SWAP2 POP POP SWAP1 POP JUMPDEST POP SWAP1 POP PUSH0 DUP3 PUSH8 0xFFFFFFFFFFFFFFFF DUP2 GT ISZERO PUSH2 0x3CA JUMPI PUSH2 0x3C9 PUSH2 0x9D9 JUMP JUMPDEST JUMPDEST PUSH1 0x40 MLOAD SWAP1 DUP1 DUP3 MSTORE DUP1 PUSH1 0x20 MUL PUSH1 0x20 ADD DUP3 ADD PUSH1 0x40 MSTORE DUP1 ISZERO PUSH2 0x3F8 JUMPI DUP2 PUSH1 0x20 ADD PUSH1 0x20 DUP3 MUL DUP1 CALLDATASIZE DUP4 CALLDATACOPY DUP1 DUP3 ADD SWAP2 POP POP SWAP1 POP JUMPDEST POP SWAP1 POP PUSH0 PUSH0 SWAP1 POP JUMPDEST DUP4 DUP2 LT ISZERO PUSH2 0x4FF JUMPI PUSH0 PUSH1 0x1 DUP3 DUP2 SLOAD DUP2 LT PUSH2 0x41D JUMPI PUSH2 0x41C PUSH2 0xA06 JUMP JUMPDEST JUMPDEST SWAP1 PUSH0 MSTORE PUSH1 0x20 PUSH0 KECCAK256 ADD PUSH0 SWAP1 SLOAD SWAP1 PUSH2 0x100 EXP SWAP1 DIV PUSH20 0xFFFFFFFFFFFFFFFFFFFFFFFFFFFFFFFFFFFFFFFF AND SWAP1 POP DUP1 DUP5 DUP4 DUP2 MLOAD DUP2 LT PUSH2 0x45B JUMPI PUSH2 0x45A PUSH2 0xA06 JUMP JUMPDEST JUMPDEST PUSH1 0x20 MUL PUSH1 0x20 ADD ADD SWAP1 PUSH20 0xFFFFFFFFFFFFFFFFFFFFFFFFFFFFFFFFFFFFFFFF AND SWAP1 DUP2 PUSH20 0xFFFFFFFFFFFFFFFFFFFFFFFFFFFFFFFFFFFFFFFF AND DUP2 MSTORE POP POP PUSH0 PUSH0 DUP3 PUSH20 0xFFFFFFFFFFFFFFFFFFFFFFFFFFFFFFFFFFFFFFFF AND PUSH20 0xFFFFFFFFFFFFFFFFFFFFFFFFFFFFFFFFFFFFFFFF AND DUP2 MSTORE PUSH1 0x20 ADD SWAP1 DUP2 MSTORE PUSH1 0x20 ADD PUSH0 KECCAK256 SLOAD DUP4 DUP4 DUP2 MLOAD DUP2 LT PUSH2 0x4E5 JUMPI PUSH2 0x4E4 PUSH2 0xA06 JUMP JUMPDEST JUMPDEST PUSH1 0x20 MUL PUSH1 0x20 ADD ADD DUP2 DUP2 MSTORE POP POP POP DUP1 DUP1 PUSH1 0x1 ADD SWAP2 POP POP PUSH2 0x400 JUMP JUMPDEST POP DUP2 DUP2 SWAP5 POP SWAP5 POP POP POP POP SWAP1 SWAP2 JUMP JUMPDEST PUSH0 PUSH1 0x20 MSTORE DUP1 PUSH0 MSTORE PUSH1 0x40 PUSH0 KECCAK256 PUSH0 SWAP2 POP SWAP1 POP SLOAD DUP2 JUMP JUMPDEST PUSH0 PUSH1 0x1 DUP1 SLOAD SWAP1 POP SWAP1 POP SWAP1 JUMP JUMPDEST PUSH1 0x2 PUSH1 0x20 MSTORE DUP1 PUSH0 MSTORE PUSH1 0x40 PUSH0 KECCAK256 PUSH0 SWAP2 POP SLOAD SWAP1 PUSH2 0x100 EXP SWAP1 DIV PUSH1 0xFF AND DUP2 JUMP JUMPDEST PUSH0 PUSH0 PUSH1 0x1 DUP1 SLOAD SWAP1 POP DUP4 LT PUSH2 0x593 JUMPI PUSH1 0x40 MLOAD PUSH32 0x8C379A000000000000000000000000000000000000000000000000000000000 DUP2 MSTORE PUSH1 0x4 ADD PUSH2 0x58A SWAP1 PUSH2 0xA8D JUMP JUMPDEST PUSH1 0x40 MLOAD DUP1 SWAP2 SUB SWAP1 REVERT JUMPDEST PUSH0 PUSH1 0x1 DUP5 DUP2 SLOAD DUP2 LT PUSH2 0x5A8 JUMPI PUSH2 0x5A7 PUSH2 0xA06 JUMP JUMPDEST JUMPDEST SWAP1 PUSH0 MSTORE PUSH1 0x20 PUSH0 KECCAK256 ADD PUSH0 SWAP1 SLOAD SWAP1 PUSH2 0x100 EXP SWAP1 DIV PUSH20 0xFFFFFFFFFFFFFFFFFFFFFFFFFFFFFFFFFFFFFFFF AND SWAP1 POP DUP1 PUSH0 PUSH0 DUP4 PUSH20 0xFFFFFFFFFFFFFFFFFFFFFFFFFFFFFFFFFFFFFFFF AND PUSH20 0xFFFFFFFFFFFFFFFFFFFFFFFFFFFFFFFFFFFFFFFF AND DUP2 MSTORE PUSH1 0x20 ADD SWAP1 DUP2 MSTORE PUSH1 0x20 ADD PUSH0 KECCAK256 SLOAD SWAP3 POP SWAP3 POP POP SWAP2 POP SWAP2 JUMP JUMPDEST PUSH0 PUSH1 0x1 DUP1 SLOAD SWAP1 POP DUP3 LT PUSH2 0x662 JUMPI PUSH1 0x40 MLOAD PUSH32 0x8C379A000000000000000000000000000000000000000000000000000000000 DUP2 MSTORE PUSH1 0x4 ADD PUSH2 0x659 SWAP1 PUSH2 0xA8D JUMP JUMPDEST PUSH1 0x40 MLOAD DUP1 SWAP2 SUB SWAP1 REVERT JUMPDEST PUSH1 0x1 DUP3 DUP2 SLOAD DUP2 LT PUSH2 0x676 JUMPI PUSH2 0x675 PUSH2 0xA06 JUMP JUMPDEST JUMPDEST SWAP1 PUSH0 MSTORE PUSH1 0x20 PUSH0 KECCAK256 ADD PUSH0 SWAP1 SLOAD SWAP1 PUSH2 0x100 EXP SWAP1 DIV PUSH20 0xFFFFFFFFFFFFFFFFFFFFFFFFFFFFFFFFFFFFFFFF AND SWAP1 POP SWAP2 SWAP1 POP JUMP JUMPDEST PUSH0 PUSH0 REVERT JUMPDEST PUSH0 DUP2 SWAP1 POP SWAP2 SWAP1 POP JUMP JUMPDEST PUSH2 0x6BB DUP2 PUSH2 0x6A9 JUMP JUMPDEST DUP2 EQ PUSH2 0x6C5 JUMPI PUSH0 PUSH0 REVERT JUMPDEST POP JUMP JUMPDEST PUSH0 DUP2 CALLDATALOAD SWAP1 POP PUSH2 0x6D6 DUP2 PUSH2 0x6B2 JUMP JUMPDEST SWAP3 SWAP2 POP POP JUMP JUMPDEST PUSH0 PUSH1 0x20 DUP3 DUP5 SUB SLT ISZERO PUSH2 0x6F1 JUMPI PUSH2 0x6F0 PUSH2 0x6A5 JUMP JUMPDEST JUMPDEST PUSH0 PUSH2 0x6FE DUP5 DUP3 DUP6 ADD PUSH2 0x6C8 JUMP JUMPDEST SWAP2 POP POP SWAP3 SWAP2 POP POP JUMP JUMPDEST PUSH0 PUSH20 0xFFFFFFFFFFFFFFFFFFFFFFFFFFFFFFFFFFFFFFFF DUP3 AND SWAP1 POP SWAP2 SWAP1 POP JUMP JUMPDEST PUSH0 PUSH2 0x730 DUP3 PUSH2 0x707 JUMP JUMPDEST SWAP1 POP SWAP2 SWAP1 POP JUMP JUMPDEST PUSH2 0x740 DUP2 PUSH2 0x726 JUMP JUMPDEST DUP3 MSTORE POP POP JUMP JUMPDEST PUSH0 PUSH1 0x20 DUP3 ADD SWAP1 POP PUSH2 0x759 PUSH0 DUP4 ADD DUP5 PUSH2 0x737 JUMP JUMPDEST SWAP3 SWAP2 POP POP JUMP JUMPDEST PUSH0 DUP2 MLOAD SWAP1 POP SWAP2 SWAP1 POP JUMP JUMPDEST PUSH0 DUP3 DUP3 MSTORE PUSH1 0x20 DUP3 ADD SWAP1 POP SWAP3 SWAP2 POP POP JUMP JUMPDEST PUSH0 DUP2 SWAP1 POP PUSH1 0x20 DUP3 ADD SWAP1 POP SWAP2 SWAP1 POP JUMP JUMPDEST PUSH2 0x791 DUP2 PUSH2 0x726 JUMP JUMPDEST DUP3 MSTORE POP POP JUMP JUMPDEST PUSH0 PUSH2 0x7A2 DUP4 DUP4 PUSH2 0x788 JUMP JUMPDEST PUSH1 0x20 DUP4 ADD SWAP1 POP SWAP3 SWAP2 POP POP JUMP JUMPDEST PUSH0 PUSH1 0x20 DUP3 ADD SWAP1 POP SWAP2 SWAP1 POP JUMP JUMPDEST PUSH0 PUSH2 0x7C4 DUP3 PUSH2 0x75F JUMP JUMPDEST PUSH2 0x7CE DUP2 DUP6 PUSH2 0x769 JUMP JUMPDEST SWAP4 POP PUSH2 0x7D9 DUP4 PUSH2 0x779 JUMP JUMPDEST DUP1 PUSH0 JUMPDEST DUP4 DUP2 LT ISZERO PUSH2 0x809 JUMPI DUP2 MLOAD PUSH2 0x7F0 DUP9 DUP3 PUSH2 0x797 JUMP JUMPDEST SWAP8 POP PUSH2 0x7FB DUP4 PUSH2 0x7AE JUMP JUMPDEST SWAP3 POP POP PUSH1 0x1 DUP2 ADD SWAP1 POP PUSH2 0x7DC JUMP JUMPDEST POP DUP6 SWAP4 POP POP POP POP SWAP3 SWAP2 POP POP JUMP JUMPDEST PUSH0 DUP2 MLOAD SWAP1 POP SWAP2 SWAP1 POP JUMP JUMPDEST PUSH0 DUP3 DUP3 MSTORE PUSH1 0x20 DUP3 ADD SWAP1 POP SWAP3 SWAP2 POP POP JUMP JUMPDEST PUSH0 DUP2 SWAP1 POP PUSH1 0x20 DUP3 ADD SWAP1 POP SWAP2 SWAP1 POP JUMP JUMPDEST PUSH2 0x848 DUP2 PUSH2 0x6A9 JUMP JUMPDEST DUP3 MSTORE POP POP JUMP JUMPDEST PUSH0 PUSH2 0x859 DUP4 DUP4 PUSH2 0x83F JUMP JUMPDEST PUSH1 0x20 DUP4 ADD SWAP1 POP SWAP3 SWAP2 POP POP JUMP JUMPDEST PUSH0 PUSH1 0x20 DUP3 ADD SWAP1 POP SWAP2 SWAP1 POP JUMP JUMPDEST PUSH0 PUSH2 0x87B DUP3 PUSH2 0x816 JUMP JUMPDEST PUSH2 0x885 DUP2 DUP6 PUSH2 0x820 JUMP JUMPDEST SWAP4 POP PUSH2 0x890 DUP4 PUSH2 0x830 JUMP JUMPDEST DUP1 PUSH0 JUMPDEST DUP4 DUP2 LT ISZERO PUSH2 0x8C0 JUMPI DUP2 MLOAD PUSH2 0x8A7 DUP9 DUP3 PUSH2 0x84E JUMP JUMPDEST SWAP8 POP PUSH2 0x8B2 DUP4 PUSH2 0x865 JUMP JUMPDEST SWAP3 POP POP PUSH1 0x1 DUP2 ADD SWAP1 POP PUSH2 0x893 JUMP JUMPDEST POP DUP6 SWAP4 POP POP POP POP SWAP3 SWAP2 POP POP JUMP JUMPDEST PUSH0 PUSH1 0x40 DUP3 ADD SWAP1 POP DUP2 DUP2 SUB PUSH0 DUP4 ADD MSTORE PUSH2 0x8E5 DUP2 DUP6 PUSH2 0x7BA JUMP JUMPDEST SWAP1 POP DUP2 DUP2 SUB PUSH1 0x20 DUP4 ADD MSTORE PUSH2 0x8F9 DUP2 DUP5 PUSH2 0x871 JUMP JUMPDEST SWAP1 POP SWAP4 SWAP3 POP POP POP JUMP JUMPDEST PUSH2 0x90B DUP2 PUSH2 0x726 JUMP JUMPDEST DUP2 EQ PUSH2 0x915 JUMPI PUSH0 PUSH0 REVERT JUMPDEST POP JUMP JUMPDEST PUSH0 DUP2 CALLDATALOAD SWAP1 POP PUSH2 0x926 DUP2 PUSH2 0x902 JUMP JUMPDEST SWAP3 SWAP2 POP POP JUMP JUMPDEST PUSH0 PUSH1 0x20 DUP3 DUP5 SUB SLT ISZERO PUSH2 0x941 JUMPI PUSH2 0x940 PUSH2 0x6A5 JUMP JUMPDEST JUMPDEST PUSH0 PUSH2 0x94E DUP5 DUP3 DUP6 ADD PUSH2 0x918 JUMP JUMPDEST SWAP2 POP POP SWAP3 SWAP2 POP POP JUMP JUMPDEST PUSH2 0x960 DUP2 PUSH2 0x6A9 JUMP JUMPDEST DUP3 MSTORE POP POP JUMP JUMPDEST PUSH0 PUSH1 0x20 DUP3 ADD SWAP1 POP PUSH2 0x979 PUSH0 DUP4 ADD DUP5 PUSH2 0x957 JUMP JUMPDEST SWAP3 SWAP2 POP POP JUMP JUMPDEST PUSH0 DUP2 ISZERO ISZERO SWAP1 POP SWAP2 SWAP1 POP JUMP JUMPDEST PUSH2 0x993 DUP2 PUSH2 0x97F JUMP JUMPDEST DUP3 MSTORE POP POP JUMP JUMPDEST PUSH0 PUSH1 0x20 DUP3 ADD SWAP1 POP PUSH2 0x9AC PUSH0 DUP4 ADD DUP5 PUSH2 0x98A JUMP JUMPDEST SWAP3 SWAP2 POP POP JUMP JUMPDEST PUSH0 PUSH1 0x40 DUP3 ADD SWAP1 POP PUSH2 0x9C5 PUSH0 DUP4 ADD DUP6 PUSH2 0x737 JUMP JUMPDEST PUSH2 0x9D2 PUSH1 0x20 DUP4 ADD DUP5 PUSH2 0x957 JUMP JUMPDEST SWAP4 SWAP3 POP POP POP JUMP JUMPDEST PUSH32 0x4E487B7100000000000000000000000000000000000000000000000000000000 PUSH0 MSTORE PUSH1 0x41 PUSH1 0x4 MSTORE PUSH1 0x24 PUSH0 REVERT JUMPDEST PUSH32 0x4E487B7100000000000000000000000000000000000000000000000000000000 PUSH0 MSTORE PUSH1 0x32 PUSH1 0x4 MSTORE PUSH1 0x24 PUSH0 REVERT JUMPDEST PUSH0 DUP3 DUP3 MSTORE PUSH1 0x20 DUP3 ADD SWAP1 POP SWAP3 SWAP2 POP POP JUMP JUMPDEST PUSH32 0x496E646578206F7574206F6620626F756E647300000000000000000000000000 PUSH0 DUP3 ADD MSTORE POP JUMP JUMPDEST PUSH0 PUSH2 0xA77 PUSH1 0x13 DUP4 PUSH2 0xA33 JUMP JUMPDEST SWAP2 POP PUSH2 0xA82 DUP3 PUSH2 0xA43 JUMP JUMPDEST PUSH1 0x20 DUP3 ADD SWAP1 POP SWAP2 SWAP1 POP JUMP JUMPDEST PUSH0 PUSH1 0x20 DUP3 ADD SWAP1 POP DUP2 DUP2 SUB PUSH0 DUP4 ADD MSTORE PUSH2 0xAA4 DUP2 PUSH2 0xA6B JUMP JUMPDEST SWAP1 POP SWAP2 SWAP1 POP JUMP INVALID LOG2 PUSH5 0x6970667358 0x22 SLT KECCAK256 0xCD 0x24 EXTCODEHASH 0xFC CALLER SWAP12 DUP13 SWAP4 SGT 0xA7 DUP5 0xC1 0xB9 PUSH30 0x1EDD94C81FA087204AE0E5638D8BFC2B59D64736F6C634300081E003300 "
				},
				"gasEstimates": {
					"creation": {
						"codeDepositCost": "557000",
						"executionCost": "592",
						"totalCost": "557592"
					},
					"external": {
						"addOrUpdate(uint256)": "97791",
						"getAll()": "infinite",
						"getUserAndValue(uint256)": "infinite",
						"getUserAtIndex(uint256)": "7151",
						"getUserCount()": "2440",
						"hasAdded(address)": "2855",
						"userValue(address)": "2868",
						"users(uint256)": "4945"
					}
				},
				"methodIdentifiers": {
					"addOrUpdate(uint256)": "3bdd0734",
					"getAll()": "53ed5143",
					"getUserAndValue(uint256)": "f72830d4",
					"getUserAtIndex(uint256)": "ffcc7bbf",
					"getUserCount()": "b5cb15f7",
					"hasAdded(address)": "e3874b29",
					"userValue(address)": "90a82112",
					"users(uint256)": "365b98b2"
				}
			},
			"storageLayout": {
				"storage": [
					{
						"astId": 5,
						"contract": "Contracts/ItterableMapping.sol:SimpleIterableMap",
						"label": "userValue",
						"offset": 0,
						"slot": "0",
						"type": "t_mapping(t_address,t_uint256)"
					},
					{
						"astId": 8,
						"contract": "Contracts/ItterableMapping.sol:SimpleIterableMap",
						"label": "users",
						"offset": 0,
						"slot": "1",
						"type": "t_array(t_address)dyn_storage"
					},
					{
						"astId": 12,
						"contract": "Contracts/ItterableMapping.sol:SimpleIterableMap",
						"label": "hasAdded",
						"offset": 0,
						"slot": "2",
						"type": "t_mapping(t_address,t_bool)"
					}
				],
				"types": {
					"t_address": {
						"encoding": "inplace",
						"label": "address",
						"numberOfBytes": "20"
					},
					"t_array(t_address)dyn_storage": {
						"base": "t_address",
						"encoding": "dynamic_array",
						"label": "address[]",
						"numberOfBytes": "32"
					},
					"t_bool": {
						"encoding": "inplace",
						"label": "bool",
						"numberOfBytes": "1"
					},
					"t_mapping(t_address,t_bool)": {
						"encoding": "mapping",
						"key": "t_address",
						"label": "mapping(address => bool)",
						"numberOfBytes": "32",
						"value": "t_bool"
					},
					"t_mapping(t_address,t_uint256)": {
						"encoding": "mapping",
						"key": "t_address",
						"label": "mapping(address => uint256)",
						"numberOfBytes": "32",
						"value": "t_uint256"
					},
					"t_uint256": {
						"encoding": "inplace",
						"label": "uint256",
						"numberOfBytes": "32"
					}
				}
			},
			"userdoc": {
				"kind": "user",
				"methods": {},
				"version": 1
			}
		}
	}
}